:100000000C942A000C9447000C9447000C94470071
:100010000C9447000C9447000C9447000C94470044
:100020000C9447000C9447000C9447000C94470034
:100030000C9447000C940D060C9447000C94470058
:100040000C9447000C9447000C9447000C94470014
:100050000C94470011241FBECFE5D8E0DEBFCDBF12
:1000600012E0A0E6B0E0E0E4FEE002C005900D92F0
:10007000AC37B107D9F722E0ACE7B2E001C01D927E
:10008000A138B207E1F70E94DF030C941E070C941D
:10009000000080EC87B987E886B9089597B18F7121
:1000A000982B97B9369A349BFECF349A84B125B1F8
:1000B00090E0922B08954091620063E080EA0E94F4
:1000C000DC0163E080EA0E94FB0108954091610039
:1000D00067E080EA0E94DC0167E080EA0E94FB01A1
:1000E0000895409160006FE080EA0E94DC016FE0BB
:1000F00080EA0E94FB01089560E08DE00E94A60066
:1001000060E08EE00E94A6000895813049F461E02D
:100110008DE00E94A60060E08EE00E94A600089597
:10012000823049F460E08DE00E94A60061E08EE03C
:100130000E94A6000895811108C060E08DE00E9431
:10014000A60060E08EE00E94A6000895982F9770A8
:10015000869586958695813021F130F08230F1F1D7
:10016000833009F458C00895613069F44BB321E03D
:1001700030E0B90102C0660F771F9A95E2F7CB0114
:10018000842B8BBB08954BB321E030E0B90102C052
:10019000660F771F9A95E2F7CB01809584238BBB7E
:1001A0000895613069F448B321E030E0B90102C03C
:1001B000660F771F9A95E2F7CB01842B88BB0895D1
:1001C00048B321E030E0B90102C0660F771F9A956D
:1001D000E2F7CB018095842388BB0895613069F4F0
:1001E00045B321E030E0B90102C0660F771F9A9550
:1001F000E2F7CB01842B85BB089545B321E030E0C5
:10020000B90102C0660F771F9A95E2F7CB0180957E
:10021000842385BB0895613069F442B321E030E066
:10022000B90102C0660F771F9A95E2F7CB01842BC4
:1002300082BB089542B321E030E0B90102C0660FED
:10024000771F9A95E2F7CB018095842382BB0895AE
:10025000282F2770869586958695813079F028F02D
:100260008230A9F08330E1F024C089B390E002C06D
:10027000959587952A95E2F78170089586B390E069
:1002800002C0959587952A95E2F78170089583B30A
:1002900090E002C0959587952A95E2F781700895C0
:1002A00080B390E002C0959587952A95E2F781701A
:1002B000089580E00895E3E6F0E080E041E050E05A
:1002C000282F2770982F969596959695913009F13D
:1002D00030F09230C1F1933009F44FC067C0908183
:1002E000913059F49AB3BA0102C0660F771F2A956C
:1002F000E2F79B01292B2ABB59C03AB3BA0102C0CD
:10030000660F771F2A95E2F7962F909593239ABB55
:100310004DC09081913059F497B3BA0102C0660F75
:10032000771F2A95E2F79B01292B27BB3FC037B3E4
:10033000BA0102C0660F771F2A95E2F7962F9095B3
:10034000932397BB33C09081913059F494B3BA0191
:1003500002C0660F771F2A95E2F79B01292B24BB69
:1003600025C034B3BA0102C0660F771F2A95E2F7A1
:10037000962F9095932394BB19C09081913059F496
:1003800091B3BA0102C0660F771F2A95E2F79B016D
:10039000292B21BB0BC031B3BA0102C0660F771FF6
:1003A0002A95E2F7962F9095932391BB8F5F329613
:1003B000803209F085CF08951F93CF93DF93C82F24
:1003C000D62F142F0E94D806883089F48C2F0E94D3
:1003D000E306883161F48D2F0E94E306883239F4F8
:1003E000812F0E94E306883211F40E94E006DF911B
:1003F000CF911F9108950F931F93CF93DF931F9277
:10040000CDB7DEB7182F062F19820E94D806883084
:10041000D9F4812F8E7F0E94E3068831A9F4802FC2
:100420000E94E306883281F40E94D806803161F48C
:10043000812F81600E94E306803431F4CE01019661
:100440000E94EC060E94E00689810F90DF91CF9117
:100450001F910F9108952F923F924F925F926F924A
:100460007F928F929F92AF92BF92CF92DF92EF9244
:10047000FF920F931F93CF93DF930F2EF3EB6F2E0B
:10048000F0E07F2EF02D0F2EFBEBAF2EF0E0BF2E15
:10049000F02D48C061E089910E94A60061E0F7015B
:1004A00081917F010E94A600CA15DB0599F7C12C36
:1004B000D12C2601480160E0F80180810E94A6004D
:1004C000E301212C312C710189910E9428018111B5
:1004D00014C0E101CD54DF4F88810E942801882398
:1004E000D9F3C201880F991F880F991F8D559F4F0F
:1004F000FC01EE0DFF1D80811FC0FFEF2F1A3F0A88
:1005000084E028163104F9F60F5F1F4F61E0F40113
:1005100080810E94A600FFEFCF1ADF0A84E0C81690
:10052000D10439F607EB10E00F2EF3EBEF2EF0E0DD
:10053000FF2EF02DE801AECFDF91CF911F910F91EB
:10054000FF90EF90DF90CF90BF90AF909F908F90F3
:100550007F906F905F904F903F902F9008954F92B3
:100560005F926F927F928F929F92AF92BF92CF9243
:10057000DF92EF92FF920F931F93CF93DF9307EBDE
:1005800010E00F2EF3EB8F2EF0E09F2EF02D0F2EAC
:10059000FBEBCF2EF0E0DF2EF02D7401E80161E0DF
:1005A00089910E94A60061E0F70181917F010E947C
:1005B000A600CC15DD0599F7C12CD12C36015801C8
:1005C00060E0F80180810E94A600E401412C512CDA
:1005D000720189910E942801811114C0E201CD5459
:1005E000DF4F88810E9428018823D9F3C301880F37
:1005F000991F880F991F8D559F4FFC01EE0DFF1D10
:10060000808116C0FFEF4F1A5F0A84E0481651043C
:10061000F9F60F5F1F4F61E0F50180810E94A6008F
:10062000FFEFCF1ADF0A84E0C816D10439F680E064
:10063000DF91CF911F910F91FF90EF90DF90CF90BE
:10064000BF90AF909F908F907F906F905F904F90F2
:100650000895CF93C82F85B38F709C2F907F892BDF
:1006600085BB60E089E00E94A60060E08BE00E940C
:10067000A60087EC90E00197F1F700C0000061E070
:100680008BE00E94A6008FE19EE40197F1F700C085
:10069000000085B3282F2F7030E1C39FC0011124C3
:1006A000822B85BB60E08BE00E94A60087EC90E087
:1006B0000197F1F700C0000061E08BE00E94A60006
:1006C0008FE39FE10197F1F700C00000CF910895FB
:1006D0000E945B0160E08AE00E94A6002FEF89EF94
:1006E00090E0215080409040E1F700C0000083E39B
:1006F0000E94290382E30E94290388E20E942903C1
:1007000086E00E9429038CE00E94290381E00E9478
:1007100029030895CF93C82F85B38F709C2F907FA6
:10072000892B85BB61E089E00E94A60060E08BE038
:100730000E94A60087EC90E00197F1F700C000004E
:1007400061E08BE00E94A6008FE19EE40197F1F743
:1007500000C0000085B3282F2F7030E1C39FC00177
:100760001124822B85BB60E08BE00E94A60087EC01
:1007700090E00197F1F700C0000061E08BE00E947B
:10078000A6008FE39FE10197F1F700C00000CF9131
:1007900008950F931F93CF93FC018081882359F014
:1007A0008F01C0E00E948A03CF5FF801EC0FF11DBA
:1007B00080818111F7CFCF911F910F910895789487
:1007C0008F9A8E9A8D9A8C9A8B9A8A9ABF9A0E9447
:1007D000F7060E945B010E9468030E947C0082E091
:1007E0000E94D4060E94490010E004E06894DD24D1
:1007F000D3F86894EE24E4F86894FF24F6F803C074
:1008000011E001C011E080E00E944E00EC01D6959D
:10081000C795D695C795CD31D105B0F081E00E943E
:10082000290381E00E9485008EEF90E00E94C903B9
:100830002FEF83ED90E3215080409040E1F700C01E
:10084000000081E00E9429036597B0F481E00E94D6
:10085000290380E00E9485008BEE90E00E94C9038E
:100860002FEF83ED90E3215080409040E1F700C0EE
:10087000000081E00E9429038AE692E00E94C903F9
:1008800080EC0E9429038AED90E00E94C9031111B7
:100890001AC10E94AF02811105C080917E02882397
:1008A000C1F3B1CF823309F44BC018F4813341F066
:1008B0000AC1833309F487C0843309F4C4C003C177
:1008C00081E00E94290385E492E00E94C9030E940E
:1008D0002B02C82F0E942B02C53309F58633F9F489
:1008E00081E00E94290384E592E00E94C9032FEF72
:1008F0008DE399E4215080409040E1F700C0000072
:1009000081E00E94290388E392E00E94C90380EC01
:100910000E9429038FE792E00E94C903D7C081E0BB
:100920000E94290389EC91E00E94C9032FEF83ED17
:1009300090E3215080409040E1F700C0000063CF79
:1009400081E00E94290385E492E00E94C9030E948D
:100950002B02C82F0E942B02C43309F58333F9F40C
:1009600081E00E94290384E592E00E94C9032FEFF1
:100970008DE399E4215080409040E1F700C00000F1
:1009800081E00E94290388E392E00E94C90380EC81
:100990000E9429038FE792E00E94C90397C081E07B
:1009A0000E94290389EC91E00E94C9032FEF83ED97
:1009B00090E3215080409040E1F700C0000081E0CA
:1009C0000E94290320CF81E00E94290385E492E060
:1009D0000E94C9030E942B02C82F0E942B02C6331B
:1009E00009F58533F9F481E00E94290384E592E05A
:1009F0000E94C9032FEF8DE399E42150804090407D
:100A0000E1F700C0000081E00E94290388E392E042
:100A10000E94C90380EC0E9429038FE792E00E94A4
:100A2000C90354C081E00E94290389EC91E00E942F
:100A3000C9032FEF83ED90E3215080409040E1F710
:100A400000C00000E0CE81E00E94290385E492E02E
:100A50000E94C9030E942B02C82F0E942B02C73399
:100A600009F58833F9F481E00E94290384E592E0D6
:100A70000E94C9032FEF8DE399E4215080409040FC
:100A8000E1F700C0000081E00E94290388E392E0C2
:100A90000E94C90380EC0E9429038FE792E00E9424
:100AA000C90314C081E00E94290389EC91E00E94EF
:100AB000C9032FEF83ED90E3215080409040E1F790
:100AC00000C00000A0CE113009F09DCE0E942B0284
:100AD000882309F495CE833309F43FC028F4813389
:100AE00061F0823311F18ECE853309F466C008F4CB
:100AF0004CC0863309F479C085CE82B3805882BB5E
:100B000081E00E9429038CE292E00E94C9032FEF4A
:100B100083ED90E3215080409040E1F700C0000059
:100B200081E00E94290310E06ECE82B38F2582BB44
:100B300081E00E9429038CE292E00E94C9032FEF1A
:100B400083ED90E3215080409040E1F700C0000029
:100B500081E00E94290310E056CE82B3802782BB39
:100B600081E00E9429038CE292E00E94C9032FEFEA
:100B700083ED90E3215080409040E1F700C00000F9
:100B800081E00E94290310E03ECE82B38E2582BB15
:100B900081E00E9429038CE292E00E94C9032FEFBA
:100BA00083ED90E3215080409040E1F700C00000C9
:100BB00081E00E94290310E026CE82B38D2582BBFE
:100BC00081E00E9429038CE292E00E94C9032FEF8A
:100BD00083ED90E3215080409040E1F700C0000099
:100BE00081E00E94290310E00ECE82B3802782BBF1
:100BF00081E00E9429038CE292E00E94C9032FEF5A
:100C000083ED90E3215080409040E1F700C0000068
:100C100081E00E94290310E0F6CD1F920F920FB6DB
:100C20000F9211242F933F934F935F936F937F9372
:100C30008F939F93AF93BF93CF93DF93EF93FF93E4
:100C40008CB1813309F090C08FE192E00E940807D7
:100C500089E092E00E9408078CEB90E00E94C903B3
:100C6000C3E0D0E00E94030780938002813341F407
:100C700088EF91E00E94080781E080937D026FC0B9
:100C800089EC91E00E9408070E9403078091BB0055
:100C90008F5F8093BB00843061F4C79A8EE591E04A
:100CA0000E9408070E9403070E940307833309F488
:100CB000C7982197B9F653C080E791E00E940807D2
:100CC0000E94030780937C028333B1F028F48133C0
:100CD00049F0823361F043C0853311F1B8F08633B7
:100CE00049F13DC08BEB90E00E94C70638C08CE70D
:100CF00090E00E94C70633C00E945B0081E00E9422
:100D0000290385E491E00E94C90329C00E9466007E
:100D100081E00E9429038AE291E00E94C9031FC07A
:100D20000E94710081E00E94290380E191E00E940D
:100D3000C90315C081E00E9429038DEC90E00E9458
:100D4000C90310927D022FEF83ED90E32150804084
:100D50009040E1F700C0000081E00E9429038091EB
:100D60007D02813009F4A8CFFF91EF91DF91CF91FF
:100D7000BF91AF919F918F917F916F915F914F91B3
:100D80003F912F910F900FBE0F901F9018951DBC93
:100D90001CBC23EC39E037BD26BD9BBD8ABD82E873
:100DA0008FBD8BE18EBD089582B982E080B9089530
:100DB00084EA86BF06B607FEFDCF81B1887F08951D
:100DC00084E986BF089583B984E886BF06B607FE26
:100DD000FDCF81B1887F089524E826BF06B607FEBF
:100DE000FDCF23B1FC01208381B1887F089588ED78
:100DF0008AB986E880BD87E689B910BC08955D9BF5
:100E0000FECF8CB90895579A5F9BFECF8CB10895A1
:100E10000F931F93CF93FC018081882359F08F019A
:100E2000C0E00E94FF06CF5FF801EC0FF11D80814A
:100E30008111F7CFCF911F910F910895F894FFCFB3
:100E40004C2B3800010001000100010101010101EA
:100E50000101010001010101010101000101010184
:100E60000101010101000101010101010101010173
:100E70000101010101010101010101010101010162
:100E80000101013738392F3435362A3132332D43B9
:100E9000303D2B080102030405060701636F6E6EE7
:100EA000656374696F6E206973206F6E00636C6F89
:100EB00073696E672E2E2E2E2E00332D757365727C
:100EC000332020342D75736572340061697220639C
:100ED0006F6E642E206973206F6666202000616942
:100EE0007220636F6E642E206973206F6E20200065
:100EF0007573657233206164646564207375636320
:100F000065737366756C7920200075736572322085
:100F10006164646564207375636365737366756C7F
:100F200079202020007573657231206164646564E6
:100F3000207375636365737366756C7920007072D6
:100F4000657373203320746F20726573657420009D
:100F5000312D6F70656E20646F6F722020322D20EE
:100F6000636C6F736520646F6F72202020332D6176
:100F7000646420757365723120202020342D6164F3
:100F800064207573657232202020352D61646420E1
:100F9000757365723320202020362D636C6F736566
:100FA0002070726F6772616D0070617373776F721A
:100FB0006420696E636F727265637420706C656122
:100FC000736520656E7465722070617373776F72DC
:100FD0006420616761696E0070617373776F72641A
:100FE00020636F727265637400706C656173652055
:100FF000656E7465722070617373776F72640068D8
:10100000656C6C6F2061646D696E20006C69676847
:1010100074206973206F6E0028312D3629206C658D
:1010200064206F6E00656E746572207061737377F3
:101030006F72640077656C636F6D6520666F7220F8
:1010400075736572206D656E7500312D75736572EF
:0C105000312020322D75736572320000D3
:00000001FF
